{
  "contractName": "Conference",
  "abi": [
    {
      "constant": true,
      "inputs": [],
      "name": "startDate",
      "outputs": [
        {
          "name": "",
          "type": "uint256"
        }
      ],
      "payable": false,
      "stateMutability": "view",
      "type": "function"
    },
    {
      "constant": true,
      "inputs": [
        {
          "name": "",
          "type": "bytes32"
        }
      ],
      "name": "speakerVotesReceived",
      "outputs": [
        {
          "name": "",
          "type": "uint256"
        }
      ],
      "payable": false,
      "stateMutability": "view",
      "type": "function"
    },
    {
      "constant": true,
      "inputs": [],
      "name": "voucherCount",
      "outputs": [
        {
          "name": "",
          "type": "uint256"
        }
      ],
      "payable": false,
      "stateMutability": "view",
      "type": "function"
    },
    {
      "constant": true,
      "inputs": [
        {
          "name": "",
          "type": "uint256"
        }
      ],
      "name": "vouchers",
      "outputs": [
        {
          "name": "_id",
          "type": "uint256"
        },
        {
          "name": "_title",
          "type": "string"
        },
        {
          "name": "_discount",
          "type": "uint256"
        },
        {
          "name": "_price",
          "type": "uint256"
        },
        {
          "name": "_active",
          "type": "bool"
        }
      ],
      "payable": false,
      "stateMutability": "view",
      "type": "function"
    },
    {
      "constant": true,
      "inputs": [],
      "name": "maxNumOfAttendees",
      "outputs": [
        {
          "name": "",
          "type": "uint256"
        }
      ],
      "payable": false,
      "stateMutability": "view",
      "type": "function"
    },
    {
      "constant": true,
      "inputs": [
        {
          "name": "",
          "type": "address"
        }
      ],
      "name": "acquiredVouchers",
      "outputs": [
        {
          "name": "",
          "type": "uint256"
        }
      ],
      "payable": false,
      "stateMutability": "view",
      "type": "function"
    },
    {
      "constant": true,
      "inputs": [],
      "name": "voucherDiscountDecimals",
      "outputs": [
        {
          "name": "",
          "type": "uint8"
        }
      ],
      "payable": false,
      "stateMutability": "view",
      "type": "function"
    },
    {
      "constant": true,
      "inputs": [
        {
          "name": "",
          "type": "address"
        }
      ],
      "name": "addressAttendees",
      "outputs": [
        {
          "name": "_id",
          "type": "uint256"
        },
        {
          "name": "_availableVotingTokens",
          "type": "uint256"
        },
        {
          "name": "_consumedVotingTokens",
          "type": "uint256"
        },
        {
          "name": "_voteCount",
          "type": "uint256"
        },
        {
          "name": "_rewardedTokens",
          "type": "uint256"
        }
      ],
      "payable": false,
      "stateMutability": "view",
      "type": "function"
    },
    {
      "constant": true,
      "inputs": [],
      "name": "countVotTokens",
      "outputs": [
        {
          "name": "",
          "type": "uint256"
        }
      ],
      "payable": false,
      "stateMutability": "view",
      "type": "function"
    },
    {
      "constant": false,
      "inputs": [],
      "name": "destroy",
      "outputs": [],
      "payable": false,
      "stateMutability": "nonpayable",
      "type": "function"
    },
    {
      "constant": true,
      "inputs": [],
      "name": "numOfAttendees",
      "outputs": [
        {
          "name": "",
          "type": "uint256"
        }
      ],
      "payable": false,
      "stateMutability": "view",
      "type": "function"
    },
    {
      "constant": true,
      "inputs": [],
      "name": "owner",
      "outputs": [
        {
          "name": "",
          "type": "address"
        }
      ],
      "payable": false,
      "stateMutability": "view",
      "type": "function"
    },
    {
      "constant": true,
      "inputs": [
        {
          "name": "",
          "type": "address"
        }
      ],
      "name": "paidByVoucherMap",
      "outputs": [
        {
          "name": "",
          "type": "uint256"
        }
      ],
      "payable": false,
      "stateMutability": "view",
      "type": "function"
    },
    {
      "constant": true,
      "inputs": [],
      "name": "endDate",
      "outputs": [
        {
          "name": "",
          "type": "uint256"
        }
      ],
      "payable": false,
      "stateMutability": "view",
      "type": "function"
    },
    {
      "constant": false,
      "inputs": [
        {
          "name": "newOwner",
          "type": "address"
        }
      ],
      "name": "transferOwnership",
      "outputs": [],
      "payable": false,
      "stateMutability": "nonpayable",
      "type": "function"
    },
    {
      "constant": false,
      "inputs": [
        {
          "name": "_recipient",
          "type": "address"
        }
      ],
      "name": "destroyAndSend",
      "outputs": [],
      "payable": false,
      "stateMutability": "nonpayable",
      "type": "function"
    },
    {
      "inputs": [
        {
          "name": "_startDate",
          "type": "uint256"
        },
        {
          "name": "_endDate",
          "type": "uint256"
        },
        {
          "name": "_tokenAddr",
          "type": "address"
        },
        {
          "name": "_maxNumOfAttendees",
          "type": "uint256"
        },
        {
          "name": "_countVotTokens",
          "type": "uint256"
        },
        {
          "name": "_voucherDiscountDecimals",
          "type": "uint8"
        }
      ],
      "payable": false,
      "stateMutability": "nonpayable",
      "type": "constructor"
    },
    {
      "payable": true,
      "stateMutability": "payable",
      "type": "fallback"
    },
    {
      "anonymous": false,
      "inputs": [
        {
          "indexed": false,
          "name": "attendee",
          "type": "address"
        }
      ],
      "name": "Register",
      "type": "event"
    },
    {
      "anonymous": false,
      "inputs": [
        {
          "indexed": false,
          "name": "attendee",
          "type": "address"
        }
      ],
      "name": "RegisterCanceled",
      "type": "event"
    },
    {
      "anonymous": false,
      "inputs": [
        {
          "indexed": false,
          "name": "_to",
          "type": "address"
        },
        {
          "indexed": false,
          "name": "_amount",
          "type": "uint256"
        }
      ],
      "name": "Refund",
      "type": "event"
    },
    {
      "anonymous": false,
      "inputs": [
        {
          "indexed": true,
          "name": "voter",
          "type": "address"
        },
        {
          "indexed": false,
          "name": "numTokens",
          "type": "uint256"
        }
      ],
      "name": "VoteCommitted",
      "type": "event"
    },
    {
      "anonymous": false,
      "inputs": [
        {
          "indexed": true,
          "name": "previousOwner",
          "type": "address"
        },
        {
          "indexed": true,
          "name": "newOwner",
          "type": "address"
        }
      ],
      "name": "OwnershipTransferred",
      "type": "event"
    },
    {
      "constant": true,
      "inputs": [],
      "name": "getTokenAddress",
      "outputs": [
        {
          "name": "",
          "type": "address"
        }
      ],
      "payable": false,
      "stateMutability": "view",
      "type": "function"
    },
    {
      "constant": false,
      "inputs": [],
      "name": "end",
      "outputs": [],
      "payable": false,
      "stateMutability": "nonpayable",
      "type": "function"
    },
    {
      "constant": false,
      "inputs": [],
      "name": "withdrawTokensToOwner",
      "outputs": [],
      "payable": true,
      "stateMutability": "payable",
      "type": "function"
    },
    {
      "constant": true,
      "inputs": [],
      "name": "getConferenceDetails",
      "outputs": [
        {
          "name": "_startDate",
          "type": "uint256"
        },
        {
          "name": "_endDate",
          "type": "uint256"
        },
        {
          "name": "_owner",
          "type": "address"
        },
        {
          "name": "_countVotTokens",
          "type": "uint256"
        },
        {
          "name": "_numOfAttendees",
          "type": "uint256"
        },
        {
          "name": "_maxNumOfAttendees",
          "type": "uint256"
        },
        {
          "name": "_token",
          "type": "address"
        },
        {
          "name": "_voucherDiscountDecimals",
          "type": "uint8"
        },
        {
          "name": "_voucherCount",
          "type": "uint256"
        }
      ],
      "payable": false,
      "stateMutability": "view",
      "type": "function"
    },
    {
      "constant": true,
      "inputs": [],
      "name": "getConferenceBalance",
      "outputs": [
        {
          "name": "",
          "type": "uint256"
        }
      ],
      "payable": false,
      "stateMutability": "view",
      "type": "function"
    },
    {
      "constant": false,
      "inputs": [
        {
          "name": "_maxNumOfAttendees",
          "type": "uint256"
        }
      ],
      "name": "changeMaxNumAttendees",
      "outputs": [],
      "payable": false,
      "stateMutability": "nonpayable",
      "type": "function"
    },
    {
      "constant": false,
      "inputs": [
        {
          "name": "_address",
          "type": "address"
        },
        {
          "name": "_numTokens",
          "type": "uint256"
        }
      ],
      "name": "increaseAvailableVotingTokens",
      "outputs": [],
      "payable": false,
      "stateMutability": "nonpayable",
      "type": "function"
    },
    {
      "constant": false,
      "inputs": [
        {
          "name": "title",
          "type": "string"
        },
        {
          "name": "discount",
          "type": "uint256"
        },
        {
          "name": "price",
          "type": "uint256"
        },
        {
          "name": "active",
          "type": "bool"
        }
      ],
      "name": "addVoucher",
      "outputs": [],
      "payable": false,
      "stateMutability": "nonpayable",
      "type": "function"
    },
    {
      "constant": false,
      "inputs": [
        {
          "name": "id",
          "type": "uint256"
        },
        {
          "name": "active",
          "type": "bool"
        }
      ],
      "name": "changeVoucherState",
      "outputs": [],
      "payable": false,
      "stateMutability": "nonpayable",
      "type": "function"
    },
    {
      "constant": false,
      "inputs": [
        {
          "name": "vid",
          "type": "uint256"
        }
      ],
      "name": "buyVoucher",
      "outputs": [],
      "payable": true,
      "stateMutability": "payable",
      "type": "function"
    },
    {
      "constant": false,
      "inputs": [
        {
          "name": "_attendee",
          "type": "address"
        }
      ],
      "name": "register",
      "outputs": [],
      "payable": false,
      "stateMutability": "nonpayable",
      "type": "function"
    },
    {
      "constant": false,
      "inputs": [
        {
          "name": "_attendee",
          "type": "address"
        }
      ],
      "name": "unregister",
      "outputs": [],
      "payable": false,
      "stateMutability": "nonpayable",
      "type": "function"
    },
    {
      "constant": false,
      "inputs": [
        {
          "name": "recipient",
          "type": "address"
        }
      ],
      "name": "refund",
      "outputs": [],
      "payable": true,
      "stateMutability": "payable",
      "type": "function"
    },
    {
      "constant": false,
      "inputs": [
        {
          "name": "_candidate",
          "type": "address"
        },
        {
          "name": "_numTokens",
          "type": "uint256"
        }
      ],
      "name": "voteForAttendee",
      "outputs": [],
      "payable": false,
      "stateMutability": "nonpayable",
      "type": "function"
    },
    {
      "constant": false,
      "inputs": [
        {
          "name": "_speakerId",
          "type": "bytes32"
        },
        {
          "name": "_numTokens",
          "type": "uint256"
        }
      ],
      "name": "voteForSpeaker",
      "outputs": [],
      "payable": false,
      "stateMutability": "nonpayable",
      "type": "function"
    },
    {
      "constant": false,
      "inputs": [
        {
          "name": "_attendee",
          "type": "address"
        },
        {
          "name": "_numTokens",
          "type": "uint256"
        }
      ],
      "name": "rewardByAvailableVotingTokens",
      "outputs": [],
      "payable": false,
      "stateMutability": "nonpayable",
      "type": "function"
    },
    {
      "constant": false,
      "inputs": [
        {
          "name": "_attendee",
          "type": "address"
        }
      ],
      "name": "consumingAvailableVotingTokens",
      "outputs": [],
      "payable": false,
      "stateMutability": "nonpayable",
      "type": "function"
    }
  ],
  "bytecode": "0x608060405234801561001057600080fd5b5060405160c08061211183398101604090815281516020830151918301516060840151608085015160a0909501516000805433600160a060020a031991821617825560029590955560039590955560079190915560068490556004949094556005805460ff191660ff9095169490941790935560018054909116600160a060020a03909316929092179091556120659081906100ac90396000f30060806040526004361061019f5763ffffffff7c01000000000000000000000000000000000000000000000000000000006000350416629d840981146101a15780630b97bc86146101c257806310fe9ae8146101e95780631e27f4651461021a5780631fff7a8e1461023257806320acb67d146102565780632ec2c2461461027a578063312c06121461029b5780633e97b43f146102b057806340de95e6146103605780634144574c146103755780634420e48614610380578063555ff0e2146103a15780636571f056146103c25780637095be72146103ed5780637bdecc3f146104395780637e1b392a1461045657806383197ef01461046b578063837e83d7146104805780638da5cb5b14610495578063924c920e146104aa578063a3e1cb3c14610519578063a585ba4514610534578063aecee4f614610560578063c24a0f8b14610581578063ce097cc714610596578063e371e865146105ae578063efbe1c1c146105c3578063f2fde38b146105d8578063f5074f41146105f9578063fa89401a1461061a578063fabbc4681461062e578063fbbbd6bf14610652575b005b3480156101ad57600080fd5b5061019f600160a060020a036004351661065a565b3480156101ce57600080fd5b506101d7610737565b60408051918252519081900360200190f35b3480156101f557600080fd5b506101fe61073d565b60408051600160a060020a039092168252519081900360200190f35b34801561022657600080fd5b506101d760043561074d565b34801561023e57600080fd5b5061019f600160a060020a036004351660243561075f565b34801561026257600080fd5b5061019f600160a060020a036004351660243561083e565b34801561028657600080fd5b5061019f600160a060020a0360043516610b32565b3480156102a757600080fd5b506101d7610c6e565b3480156102bc57600080fd5b506102c8600435610c74565b604051808681526020018060200185815260200184815260200183151515158152602001828103825286818151815260200191508051906020019080838360005b83811015610321578181015183820152602001610309565b50505050905090810190601f16801561034e5780820380516001836020036101000a031916815260200191505b50965050505050505060405180910390f35b34801561036c57600080fd5b506101d7610d32565b61019f600435610d38565b34801561038c57600080fd5b5061019f600160a060020a0360043516611167565b3480156103ad57600080fd5b506101d7600160a060020a0360043516611310565b3480156103ce57600080fd5b506103d7611322565b6040805160ff9092168252519081900360200190f35b3480156103f957600080fd5b5061040e600160a060020a036004351661132b565b6040805195865260208601949094528484019290925260608401526080830152519081900360a00190f35b34801561044557600080fd5b5061019f600435602435151561135a565b34801561046257600080fd5b506101d7611453565b34801561047757600080fd5b5061019f611459565b34801561048c57600080fd5b506101d761147e565b3480156104a157600080fd5b506101fe611484565b3480156104b657600080fd5b506104bf611493565b60408051998a5260208a0198909852600160a060020a03968716898901526060890195909552608088019390935260a087019190915290921660c085015260ff90911660e084015261010083015251908190036101200190f35b34801561052557600080fd5b5061019f6004356024356114d1565b34801561054057600080fd5b5061019f60246004803582810192910135903560443560643515156116c9565b34801561056c57600080fd5b506101d7600160a060020a03600435166117f3565b34801561058d57600080fd5b506101d7611805565b3480156105a257600080fd5b5061019f60043561180b565b3480156105ba57600080fd5b506101d76118a4565b3480156105cf57600080fd5b5061019f611953565b3480156105e457600080fd5b5061019f600160a060020a03600435166119c6565b34801561060557600080fd5b5061019f600160a060020a0360043516611a5a565b61019f600160a060020a0360043516611a7d565b34801561063a57600080fd5b5061019f600160a060020a0360043516602435611cd1565b61019f611dc6565b60008054600160a060020a0316331461067257600080fd5b600254428111156106bb576040805160e560020a62461bcd02815260206004820152601a6024820152600080516020611fda833981519152604482015290519081900360640190fd5b600160a060020a038316600090815260096020526040812080549093501161071b576040805160e560020a62461bcd02815260206004820152601a6024820152600080516020611ffa833981519152604482015290519081900360640190fd5b600182015415156107325760048201805460010190555b505050565b60025481565b600154600160a060020a03165b90565b60086020526000908152604090205481565b60008054600160a060020a0316331461077757600080fd5b600254428111156107c0576040805160e560020a62461bcd02815260206004820152601a6024820152600080516020611fda833981519152604482015290519081900360640190fd5b600160a060020a0384166000908152600960205260408120805490935011610820576040805160e560020a62461bcd02815260206004820152601a6024820152600080516020611ffa833981519152604482015290519081900360640190fd5b82826001015411156108385760048201805460010190555b50505050565b60008060025480421015151561088c576040805160e560020a62461bcd02815260206004820152601a6024820152600080516020611fda833981519152604482015290519081900360640190fd5b6003544281116108d4576040805160e560020a62461bcd028152602060048201526019602482015260008051602061201a833981519152604482015290519081900360640190fd5b33600160a060020a0387161415610981576040805160e560020a62461bcd02815260206004820152604260248201527f46756e6374696f6e2063616c6c6564206279207468652073616d65206164647260448201527f65737320686f772069732063616e6469646174652e2043616e6e6f7420766f7460648201527f652e000000000000000000000000000000000000000000000000000000000000608482015290519081900360a40190fd5b600160a060020a03861660009081526009602052604081208054909550116109f3576040805160e560020a62461bcd02815260206004820152601b60248201527f526571756972656420612076616c69642063616e6469646174652e0000000000604482015290519081900360640190fd5b336000908152600960205260408120805490945011610a4a576040805160e560020a62461bcd02815260206004820152601a6024820152600080516020611ffa833981519152604482015290519081900360640190fd5b6001830154851115610aa6576040805160e560020a62461bcd02815260206004820152601b60248201527f496e73756666696369656e7420766f74696e6720746f6b656e732e0000000000604482015290519081900360640190fd5b6003840154610abb908663ffffffff611f1c16565b60038501556001830154610ad5908663ffffffff611f2f16565b60018401556002830154610aef908663ffffffff611f1c16565b600284015560408051868152905133917f3046f96b48725cd236ed445f0652eaf510e9be81e3dbdc79e65a143b6c89ae04919081900360200190a2505050505050565b60008054600160a060020a03163314610b4a57600080fd5b600254428111610b92576040805160e560020a62461bcd028152602060048201526019602482015260008051602061201a833981519152604482015290519081900360640190fd5b600160a060020a0383166000908152600960205260408120805490935011610c04576040805160e560020a62461bcd02815260206004820152601760248201527f526571756972652076616c696420617474656e6465652e000000000000000000604482015290519081900360640190fd5b600080835560018301819055600283018190556003830181905560048301556006805460001901905560408051600160a060020a038516815290517fe600fbf64f911ac6f81388b249a45a520e6a8b795579b99823881122b38a84c59181900360200190a1505050565b600d5481565b600c602090815260009182526040918290208054600180830180548651600293821615610100026000190190911692909204601f810186900486028301860190965285825291949293909290830182828015610d115780601f10610ce657610100808354040283529160200191610d11565b820191906000526020600020905b815481529060010190602001808311610cf457829003601f168201915b50505050600283015460038401546004909401549293909290915060ff1685565b60075481565b60008060006002548042101515610d87576040805160e560020a62461bcd028152602060048201526019602482015260008051602061201a833981519152604482015290519081900360640190fd5b600054600160a060020a0316331415610dea576040805160e560020a62461bcd02815260206004820152601860248201527f46756e6374696f6e2063616c6c6564206279206f776e65720000000000000000604482015290519081900360640190fd5b60075460065410610e45576040805160e560020a62461bcd02815260206004820152601860248201527f496e73756666696369656e7420667265652073706f74732e0000000000000000604482015290519081900360640190fd5b336000908152600a602052604090205415610ed0576040805160e560020a62461bcd02815260206004820152602260248201527f52657175697265206163717569726564206f6e6c79206f6e6520766f7563686560448201527f722e000000000000000000000000000000000000000000000000000000000000606482015290519081900360840190fd5b600085118015610ee25750600d548511155b1515610f38576040805160e560020a62461bcd02815260206004820152601660248201527f526571756972652076616c696420766f75636865722e00000000000000000000604482015290519081900360640190fd5b3360009081526009602052604090205415610fc3576040805160e560020a62461bcd02815260206004820152602d60248201527f4163636f756e7420616c7265616479207265676973746572656420746f20746860448201527f6520636f6e666572656e63652e00000000000000000000000000000000000000606482015290519081900360840190fd5b6000858152600c602052604090208054909450851461102c576040805160e560020a62461bcd02815260206004820152601960248201527f526571756972656420612076616c696420766f75636865722e00000000000000604482015290519081900360640190fd5b600484015460ff16151561108a576040805160e560020a62461bcd02815260206004820152601a60248201527f5265717569726520616e2061637469766520766f75636865722e000000000000604482015290519081900360640190fd5b6003840154600154604080517f23b872dd0000000000000000000000000000000000000000000000000000000081523360048201523060248201819052604482018590529151919650929450600160a060020a03909116916323b872dd9160648083019260209291908290030181600087803b15801561110957600080fd5b505af115801561111d573d6000803e3d6000fd5b505050506040513d602081101561113357600080fd5b5051151561114057600080fd5b50336000908152600a6020908152604080832096909655600b905293909320929092555050565b60008054600160a060020a0316331461117f57600080fd5b6002544281116111c7576040805160e560020a62461bcd028152602060048201526019602482015260008051602061201a833981519152604482015290519081900360640190fd5b60075460065410611222576040805160e560020a62461bcd02815260206004820152601860248201527f496e73756666696369656e7420667265652073706f74732e0000000000000000604482015290519081900360640190fd5b600160a060020a03831660009081526009602052604090208054909250156112ba576040805160e560020a62461bcd02815260206004820152602d60248201527f4163636f756e7420616c7265616479207265676973746572656420746f20746860448201527f6520636f6e666572656e63652e00000000000000000000000000000000000000606482015290519081900360840190fd5b60068054600190810182556004549084015554825560408051600160a060020a038516815290517feeda149c76076b34d4b9d8896c2f7efc0d33d1c7b53ea3c5db490d64613f603a9181900360200190a1505050565b600a6020526000908152604090205481565b60055460ff1681565b600960205260009081526040902080546001820154600283015460038401546004909401549293919290919085565b60008054600160a060020a0316331461137257600080fd5b6002544281116113ba576040805160e560020a62461bcd028152602060048201526019602482015260008051602061201a833981519152604482015290519081900360640190fd5b6000848152600c602052604081209250841180156113da5750600d548411155b15156113e557600080fd5b8154841461143d576040805160e560020a62461bcd02815260206004820152601060248201527f496e76616c696420566f75636865722e00000000000000000000000000000000604482015290519081900360640190fd5b50600401805460ff191691151591909117905550565b60045481565b600054600160a060020a0316331461147057600080fd5b600054600160a060020a0316ff5b60065481565b600054600160a060020a031681565b600254600354600054600454600654600754600154600554600d5497989697600160a060020a03968716979596949593949092169260ff9091169190565b60008060025480421015151561151f576040805160e560020a62461bcd02815260206004820152601a6024820152600080516020611fda833981519152604482015290519081900360640190fd5b600354428111611567576040805160e560020a62461bcd028152602060048201526019602482015260008051602061201a833981519152604482015290519081900360640190fd5b600086116115bf576040805160e560020a62461bcd02815260206004820152601660248201527f52657175697265642076616c696420737065616b657200000000000000000000604482015290519081900360640190fd5b336000908152600960205260408120805490955011611616576040805160e560020a62461bcd02815260206004820152601a6024820152600080516020611ffa833981519152604482015290519081900360640190fd5b600184015485111561162757600080fd5b6000868152600860205260409020549250611648838663ffffffff611f1c16565b600087815260086020526040902055600184015461166c908663ffffffff611f2f16565b60018501556002840154611686908663ffffffff611f1c16565b600285015560408051868152905133917f3046f96b48725cd236ed445f0652eaf510e9be81e3dbdc79e65a143b6c89ae04919081900360200190a2505050505050565b600054600160a060020a031633146116e057600080fd5b600254428111611728576040805160e560020a62461bcd028152602060048201526019602482015260008051602061201a833981519152604482015290519081900360640190fd5b600d8054600101908190556040805160a08101825291825280516020601f890181900481028201810190925287815281830191899089908190840183828082843750505092845250505060208082018790526040808301879052851515606090930192909252600d546000908152600c8252919091208251815582820151805191926117bc92600185019290910190611f41565b5060408201516002820155606082015160038201556080909101516004909101805460ff1916911515919091179055505050505050565b600b6020526000908152604090205481565b60035481565b600054600160a060020a0316331461182257600080fd5b60025442811161186a576040805160e560020a62461bcd028152602060048201526019602482015260008051602061201a833981519152604482015290519081900360640190fd5b60065482101561189e576040805160e560020a62461bcd028152602060048201526000602482015290519081900360640190fd5b50600755565b60008054600160a060020a031633146118bc57600080fd5b600154604080517f70a082310000000000000000000000000000000000000000000000000000000081523060048201529051600160a060020a03909216916370a08231916024808201926020929091908290030181600087803b15801561192257600080fd5b505af1158015611936573d6000803e3d6000fd5b505050506040513d602081101561194c57600080fd5b5051905090565b600054600160a060020a0316331461196a57600080fd5b600354428111156119b3576040805160e560020a62461bcd02815260206004820152601a6024820152600080516020611fda833981519152604482015290519081900360640190fd5b6119bb611dc6565b6119c3611459565b50565b600054600160a060020a031633146119dd57600080fd5b600160a060020a03811615156119f257600080fd5b60008054604051600160a060020a03808516939216917f8be0079c531659141344cd1fd0a4f28419497f9722a3daafe3b4186f6b6457e091a36000805473ffffffffffffffffffffffffffffffffffffffff1916600160a060020a0392909216919091179055565b600054600160a060020a03163314611a7157600080fd5b80600160a060020a0316ff5b6000805481908190600160a060020a03163314611a9957600080fd5b600254428111611ae1576040805160e560020a62461bcd028152602060048201526019602482015260008051602061201a833981519152604482015290519081900360640190fd5b600160a060020a0385166000908152600a602052604081205494508411611b52576040805160e560020a62461bcd02815260206004820152601360248201527f496e76616c696420566f75636865722049442e00000000000000000000000000604482015290519081900360640190fd5b6000848152600c6020526040902080549093508414611bbb576040805160e560020a62461bcd02815260206004820152601060248201527f496e76616c696420566f75636865722e00000000000000000000000000000000604482015290519081900360640190fd5b600160a060020a038086166000818152600b602081815260408084208054600a845282862086905593835284905560015481517fa9059cbb00000000000000000000000000000000000000000000000000000000815260048101969096526024860184905290519297509094169363a9059cbb93604480820194929392918390030190829087803b158015611c4f57600080fd5b505af1158015611c63573d6000803e3d6000fd5b505050506040513d6020811015611c7957600080fd5b50511515611c8657600080fd5b60408051600160a060020a03871681526020810184905281517fbb28353e4598c3b9199101a66e0989549b659a59a54d2c27fbb183f1932c8e6d929181900390910190a15050505050565b60008054600160a060020a03163314611ce957600080fd5b600254428111611d31576040805160e560020a62461bcd028152602060048201526019602482015260008051602061201a833981519152604482015290519081900360640190fd5b600160a060020a0384166000908152600960205260408120805490935011611da3576040805160e560020a62461bcd02815260206004820152601860248201527f52657175697265642076616c696420617474656e6465652e0000000000000000604482015290519081900360640190fd5b6001820154611db8908463ffffffff611f1c16565b826001018190555050505050565b60008054600160a060020a03163314611dde57600080fd5b600154604080517f70a082310000000000000000000000000000000000000000000000000000000081523060048201529051600160a060020a03909216916370a08231916024808201926020929091908290030181600087803b158015611e4457600080fd5b505af1158015611e58573d6000803e3d6000fd5b505050506040513d6020811015611e6e57600080fd5b505160015460008054604080517fa9059cbb000000000000000000000000000000000000000000000000000000008152600160a060020a03928316600482015260248101869052905194955092169263a9059cbb926044808201936020939283900390910190829087803b158015611ee557600080fd5b505af1158015611ef9573d6000803e3d6000fd5b505050506040513d6020811015611f0f57600080fd5b505115156119c357600080fd5b81810182811015611f2957fe5b92915050565b600082821115611f3b57fe5b50900390565b828054600181600116156101000203166002900490600052602060002090601f016020900481019282601f10611f8257805160ff1916838001178555611faf565b82800160010185558215611faf579182015b82811115611faf578251825591602001919060010190611f94565b50611fbb929150611fbf565b5090565b61074a91905b80821115611fbb5760008155600101611fc5560046756e6374696f6e2063616c6c656420746f6f206561726c792e000000000000526571756972656420612076616c696420617474656e6465652e00000000000046756e6374696f6e2063616c6c656420746f6f206c6174652e00000000000000a165627a7a723058207206bb753762483553edb66338f70e40b5087ebc224144e9345869fa69d69b410029",
  "source": "\r\npragma solidity 0.4.24;\r\n\r\nimport \"openzeppelin-solidity/contracts/lifecycle/Destructible.sol\";\r\nimport \"./OTH.sol\";\r\n\r\ncontract Conference is Destructible {  // can be killed, so the owner gets sent the money in the end\r\n    \r\n    using SafeMath for uint;\r\n    // ============\r\n    // EVENTS:\r\n    // ============\r\n    \r\n    event Register(address attendee);\r\n    event RegisterCanceled(address attendee);\r\n    event Refund(address _to, uint _amount); // so you can log the event\r\n    event VoteCommitted(address indexed voter, uint numTokens);\r\n\r\n    // ============\r\n    // DATA STRUCTURE:\r\n    // ============\r\n    \r\n    struct Attendee {\r\n        uint _id;\r\n        uint _availableVotingTokens;\r\n        uint _consumedVotingTokens;\r\n        uint _voteCount;\r\n        uint _rewardedTokens;\r\n    }\r\n\r\n    struct Voucher {\r\n        uint _id;\r\n        string _title;\r\n        uint _discount;\r\n        uint _price;\r\n        bool _active;\r\n    }\r\n\r\n    // ============\r\n    // STATE VARIABLES:\r\n    // ============\r\n\r\n    OTH token;\r\n\r\n    uint public startDate;\r\n    uint public endDate;\r\n    uint public countVotTokens;\r\n    uint8 public voucherDiscountDecimals;\r\n\r\n    uint public numOfAttendees;\r\n    uint public maxNumOfAttendees;\r\n\r\n    mapping (bytes32 => uint) public speakerVotesReceived; // maps speaker's id to vote count\r\n\r\n    mapping(address => Attendee) public addressAttendees; // maps user's address to Attendee\r\n\r\n    mapping(address => uint) public acquiredVouchers; //maps user's address to voucher id\r\n    mapping(address => uint) public paidByVoucherMap; //maps user's address to amount paid by voucher\r\n    \r\n    mapping(uint => Voucher) public vouchers; //maps voucher's id to Voucher structure'\r\n    uint public voucherCount;\r\n    \r\n    // ============\r\n    // CONSTRUCTOR:\r\n    // ============\r\n\r\n    constructor(\r\n        uint _startDate, \r\n        uint _endDate,\r\n\t\taddress _tokenAddr,                 \r\n\t\tuint _maxNumOfAttendees, \r\n        uint _countVotTokens,\r\n        uint8 _voucherDiscountDecimals\r\n    ) \r\n        public\r\n    {\r\n        startDate = _startDate;\r\n        endDate = _endDate;\r\n\t\t\r\n        maxNumOfAttendees = _maxNumOfAttendees;\r\n        numOfAttendees = 0;\r\n        countVotTokens = _countVotTokens;\r\n        voucherDiscountDecimals = _voucherDiscountDecimals;\r\n\r\n        token = OTH(_tokenAddr);\r\n    }\r\n\r\n    function() payable public {}\r\n\r\n    modifier onlyBefore(uint _time) {\r\n        require(now < _time, \"Function called too late.\");\r\n        _;\r\n    }\r\n\r\n    modifier onlyAfter(uint _time) {\r\n        require(now >= _time, \"Function called too early.\");\r\n        _;\r\n    }\r\n\r\n    function getTokenAddress() view external returns(address){\r\n        return token;\r\n    }\r\n\r\n    //End the conferince. Transfer OTHs from conference to the owner\r\n    function end() external onlyOwner onlyAfter(endDate) {\r\n        // without this funds could be locked in the contract forever!\r\n        withdrawTokensToOwner();\r\n        destroy();\r\n    }\r\n    \r\n    //transfer conference OTHs back to the owner\r\n    function withdrawTokensToOwner() public payable onlyOwner{\r\n        uint balance = token.balanceOf(address(this));\r\n        require(token.transfer(owner, balance));\r\n    }\r\n\r\n    function getConferenceDetails() view external \r\n        returns(\r\n            uint _startDate,\r\n            uint _endDate,\r\n            address _owner,\r\n            uint _countVotTokens,\r\n            uint _numOfAttendees,\r\n            uint _maxNumOfAttendees,\r\n            address _token,\r\n            uint8 _voucherDiscountDecimals,            \r\n            uint _voucherCount\r\n        ){\r\n        _startDate = startDate;\r\n        _endDate = endDate;\r\n        _owner = owner;\r\n        _countVotTokens = countVotTokens;\r\n        _numOfAttendees = numOfAttendees; \r\n        _maxNumOfAttendees = maxNumOfAttendees;\r\n        _token = token;\r\n        _voucherDiscountDecimals = voucherDiscountDecimals;\r\n        _voucherCount = voucherCount;\r\n    }\r\n\r\n    //Set the budget of conference\r\n    function getConferenceBalance() view external onlyOwner returns(uint) {\r\n        return token.balanceOf(address(this));\r\n    }\r\n\r\n    //Set the max number of conference attendees\r\n    function changeMaxNumAttendees(uint _maxNumOfAttendees) external onlyOwner onlyBefore(startDate) {\r\n        require(numOfAttendees <= _maxNumOfAttendees, \"\");\r\n        maxNumOfAttendees = _maxNumOfAttendees;\r\n    }\r\n\t\r\n\t//Increase a voting tokens to conference attendee\r\n    function increaseAvailableVotingTokens(address _address, uint _numTokens) external onlyOwner onlyBefore(startDate){\r\n        Attendee storage attendee = addressAttendees[_address];\r\n        require(attendee._id > 0, \"Required valid attendee.\");\r\n        \r\n        attendee._availableVotingTokens = attendee._availableVotingTokens.add(_numTokens);\r\n    }\r\n\t\r\n    function addVoucher(string title, uint discount, uint price, bool active) external onlyOwner onlyBefore(startDate) {        \r\n        voucherCount++;\r\n        vouchers[voucherCount] = Voucher(voucherCount, title, discount, price, active);\r\n    }\r\n\r\n    function changeVoucherState(uint id, bool active) external onlyOwner onlyBefore(startDate) {\r\n        \r\n        Voucher storage voucher = vouchers[id];\r\n        //require a valid voucher\r\n        require(id > 0 && id <= voucherCount);\r\n        require(voucher._id == id, \"Invalid Voucher.\");\r\n        \r\n        voucher._active = active;        \r\n    }\r\n    \r\n    //purchase conference's voucher\r\n    function buyVoucher(uint vid) external payable onlyBefore(startDate) {\r\n        require(owner != msg.sender, \"Function called by owner\");\r\n        require(numOfAttendees < maxNumOfAttendees, \"Insufficient free spots.\");\r\n        require(acquiredVouchers[msg.sender] == 0, \"Require acquired only one voucher.\");\r\n        require(vid > 0 && vid <= voucherCount, \"Require valid voucher.\");\r\n        require(addressAttendees[msg.sender]._id == 0, \"Account already registered to the conference.\");           \r\n\r\n        Voucher storage voucher = vouchers[vid];\r\n        require(voucher._id == vid, \"Required a valid voucher.\");\r\n        require(voucher._active, \"Require an active voucher.\");\r\n                \r\n        address to = address(this);\r\n        uint amount = voucher._price;\r\n        require(token.transferFrom(msg.sender, to, amount));\r\n        \r\n        acquiredVouchers[msg.sender] = vid;\r\n        paidByVoucherMap[msg.sender] = amount;\r\n    }\r\n\r\n    function register(address _attendee) external onlyOwner onlyBefore(startDate) {\r\n        require(numOfAttendees < maxNumOfAttendees, \"Insufficient free spots.\");\r\n        \r\n        Attendee storage attendee = addressAttendees[_attendee];\r\n        require(attendee._id == 0, \"Account already registered to the conference.\"); \r\n\r\n        numOfAttendees++;\r\n        attendee._availableVotingTokens = countVotTokens;\r\n        attendee._id = numOfAttendees;\r\n\r\n        emit Register(_attendee);\r\n    }\r\n\t\r\n    function unregister(address _attendee) external onlyOwner onlyBefore(startDate) {\r\n        \r\n        Attendee storage attendee = addressAttendees[_attendee];\r\n        require(attendee._id > 0, \"Require valid attendee.\");\r\n\r\n        attendee._id = 0;\r\n        attendee._availableVotingTokens = 0;\r\n        attendee._consumedVotingTokens = 0;\r\n        attendee._voteCount = 0;\r\n        attendee._rewardedTokens = 0;\r\n        \r\n        numOfAttendees--;\r\n        \r\n        emit RegisterCanceled(_attendee);       \r\n    }\r\n\r\n    function refund(address recipient) public payable onlyOwner onlyBefore(startDate) {\r\n\t    \r\n\t    //check if acquired voucher exists\r\n        uint id = acquiredVouchers[recipient];\r\n        require(id > 0, \"Invalid Voucher ID.\");\r\n        \r\n        Voucher storage voucher = vouchers[id];\r\n        require(voucher._id == id, \"Invalid Voucher.\");\r\n        \r\n        uint amount = paidByVoucherMap[recipient];\r\n        acquiredVouchers[recipient] = 0;\r\n        paidByVoucherMap[recipient] = 0;\r\n        \r\n        require(token.transfer(recipient, amount));\r\n        \r\n        emit Refund(recipient, amount);\r\n    }\r\n\r\n    // =================\r\n    // VOTING INTERFACE:\r\n    // =================\r\n\r\n    // This function increments the vote count for the specified attendee candidate.\r\n    function voteForAttendee(address _candidate, uint _numTokens) external onlyAfter(startDate) onlyBefore(endDate) {\r\n        require(msg.sender != _candidate, \"Function called by the same address how is candidate. Cannot vote.\");\r\n        \r\n        Attendee storage attendeeCandidate = addressAttendees[_candidate]; \r\n        require(attendeeCandidate._id > 0, \"Required a valid candidate.\");\r\n\r\n        Attendee storage attendee = addressAttendees[msg.sender]; \r\n        require(attendee._id > 0, \"Required a valid attendee.\");\r\n        require(attendee._availableVotingTokens >= _numTokens, \"Insufficient voting tokens.\");\r\n        \r\n        attendeeCandidate._voteCount = attendeeCandidate._voteCount.add(_numTokens);\r\n        \r\n        attendee._availableVotingTokens = attendee._availableVotingTokens.sub(_numTokens);\r\n        attendee._consumedVotingTokens = attendee._consumedVotingTokens.add(_numTokens);\r\n\r\n        emit VoteCommitted(msg.sender, _numTokens);\r\n    }\r\n\r\n    // This function increments the vote count for the specified Speaker candidate.\r\n    function voteForSpeaker(bytes32 _speakerId, uint _numTokens) external onlyAfter(startDate) onlyBefore(endDate){\r\n\r\n        require(_speakerId > 0, \"Required valid speaker\");\r\n\r\n        Attendee storage attendee = addressAttendees[msg.sender]; \r\n        require(attendee._id > 0, \"Required a valid attendee.\");\r\n        require(attendee._availableVotingTokens >= _numTokens);\r\n\r\n        uint count = speakerVotesReceived[_speakerId];\r\n        speakerVotesReceived[_speakerId] = count.add(_numTokens);\r\n\r\n        attendee._availableVotingTokens = attendee._availableVotingTokens.sub(_numTokens);\r\n        attendee._consumedVotingTokens = attendee._consumedVotingTokens.add(_numTokens);\r\n\r\n        emit VoteCommitted(msg.sender, _numTokens);\r\n    }\r\n\r\n    //generating more than xUTH = 1 OTH\r\n    function rewardByAvailableVotingTokens(address _attendee, uint _numTokens) external onlyOwner onlyAfter(startDate) {\r\n        \r\n        Attendee storage attendee = addressAttendees[_attendee];   \r\n        require(attendee._id > 0, \"Required a valid attendee.\");\r\n        \r\n        if(attendee._availableVotingTokens > _numTokens)\r\n            attendee._rewardedTokens++;\r\n        \r\n    }\r\n\r\n    //consuming available voting tokens = 1 OTH\r\n    function consumingAvailableVotingTokens(address _attendee) external onlyOwner onlyAfter(startDate) {\r\n        Attendee storage attendee = addressAttendees[_attendee];   \r\n        require(attendee._id > 0, \"Required a valid attendee.\");\r\n        \r\n        if(attendee._availableVotingTokens == 0)\r\n            attendee._rewardedTokens++;\r\n    }\r\n}",
  "sourcePath": "D:\\projects\\source\\repos\\BlockchainPoC\\SmartContracts\\contracts\\Conference.sol",
  "compiler": {
    "name": "solc",
    "version": "0.4.24+commit.e67f0147.Emscripten.clang"
  },
  "schemaVersion": "2.0.0",
  "updatedAt": "2018-07-25T07:41:32.577Z"
}